:100000000C9462000C94FB040C94D4040C948A00AD
:100010000C948A000C948A000C948A000C948A0038
:100020000C948A000C948A000C948A000C948A0028
:100030000C948A000C948A000C948A000C948A0018
:100040000C948A040C948A000C948A000C948A0004
:100050000C948A000C948A000C948A000C948A00F8
:100060000C9422050C948A00000000002300260056
:10007000290000000000240027002A0000000000E2
:10008000250028002B0004040404040404040202D4
:100090000202020203030303030301020408102007
:1000A0004080010204081020010204081020000012
:1000B0000008000201000003040700000000000027
:1000C0000000500611241FBECFEFD8E0DEBFCDBF29
:1000D00011E0A0E0B1E0E2E1FFE002C005900D9286
:1000E000A631B107D9F721E0A6E1B1E001C01D9228
:1000F000A23FB207E1F710E0C2E6D0E004C02197CA
:10010000FE010E947C07C136D107C9F70E948D0607
:100110000C9487070C94000090E0FC01E255FF4F1F
:100120003491FC01E656FF4F2491FC01EA57FF4F42
:10013000E491EE2309F43BC0332339F1333091F0DD
:1001400038F43130A9F0323001F584B58F7D12C01A
:10015000373091F03830A1F03430B9F4809180001C
:100160008F7D03C0809180008F77809380000DC0C9
:1001700084B58F7784BD09C08091B0008F7703C0AC
:100180008091B0008F7D8093B000F0E0EE0FFF1FF4
:10019000E458FF4FA591B4918FB7F894EC91611199
:1001A00003C020952E2301C02E2B2C938FBF0895C2
:1001B000CF93DF9390E0FC01E656FF4F2491FC01C2
:1001C000EA57FF4F8491882361F190E0880F991FCF
:1001D000FC01EE58FF4FC591D491FC01E458FF4F4C
:1001E000A591B491611109C09FB7F89488812095B9
:1001F00082238883EC912E230BC0623061F49FB779
:10020000F8943881822F809583238883EC912E2B5C
:100210002C939FBF06C08FB7F894E8812E2B2883BC
:100220008FBFDF91CF9108951F93CF93DF93182F46
:10023000EB0161E00E94D800209711F460E004C057
:10024000CF3FD10539F461E0812FDF91CF911F912C
:100250000C948C00E12FF0E0E255FF4FE491E33085
:10026000F9F048F4E130B9F0E230A1F584B58062EC
:1002700084BDC8BD34C0E730E9F0E83019F1E4309E
:1002800049F580918000806280938000D0938B003C
:10029000C0938A0024C084B5806884BDC7BD1FC0D8
:1002A00080918000806880938000D0938900C09303
:1002B000880015C08091B00080688093B000C09322
:1002C000B3000DC08091B00080628093B000C093F5
:1002D000B40005C0C038D1050CF0B5CFAFCFDF9169
:1002E000CF911F9108953FB7F8948091C6019091E6
:1002F000C701A091C801B091C90126B5A89B05C04E
:100300002F3F19F00196A11DB11D3FBFBA2FA92F94
:10031000982F8827820F911DA11DB11DBC01CD0111
:1003200042E0660F771F881F991F4A95D1F70895FD
:10033000E091B501F091B601309729F01092AE012D
:100340001092AD0109940895CF93DF93AC01E09131
:10035000B701F091B8013097F1F09091B001809120
:10036000AF019817C0F090E0292F30E0261737072B
:1003700054F4D901AD5DBE4FEA01C20FD31F88818D
:100380008C939F5FF1CF1092B0016093AF01CB01CE
:10039000DF91CF910994DF91CF9108950895CF9285
:1003A000DF92EF92FF920F931F93CF93DF936C0135
:1003B0007A018B01C0E0D0E0CE15DF0589F0D801CD
:1003C0006D918D01D601ED91FC910190F081E02DB0
:1003D000C6010995892B11F47E0102C02196ECCF4C
:1003E000C701DF91CF911F910F91FF90EF90DF90A8
:1003F000CF900895CF93DF93EC0160E070E08881A7
:100400000E94140160E070E089810E94140160E0A4
:1004100070E08A810E94140160E070E08B81DF91BE
:10042000CF910C94140185ED8093BC008091BC00A9
:1004300084FDFCCF1092AC01089540916301262FFA
:1004400030E0240F311D21323105DCF42091AC0164
:100450002430C9F4FC0180E090E0861758F4309114
:1004600063012191DC01AD5BBE4FA30FB11D2C9345
:100470000196F3CF80916301680F6093630180E080
:10048000089581E0089582E008950895E091B00113
:100490008091AF01E81730F4F0E0ED5DFE4F808110
:1004A00090E008958FEF9FEF08959091B0018091B3
:1004B000AF01981750F4E92FF0E0ED5DFE4F208179
:1004C00030E09F5F9093B00102C02FEF3FEFC90172
:1004D00008958091AF0190E02091B001821B9109B5
:1004E0000895CF93DF9300D0CDB7DEB7CB01642F53
:1004F00049835A830E941D024981842F5A81952F76
:100500000F900F90DF91CF910895CF93DF931F92BB
:10051000CDB7DEB7698361E0CE0101960E941D026E
:1005200081E090E00F90DF91CF910895089580E0F1
:1005300090E008958F929F92AF92BF92CF92DF92F8
:10054000EF92FF92CF93DF9300D000D0CDB7DEB70C
:10055000809122018830F1F56091BD018AEC91E033
:100560000E9485026091BE018AEC91E00E948502A2
:100570006091BF018AEC91E00E9485026091C00108
:100580008AEC91E00E9485026091B9018AEC91E0C9
:100590000E9485026091BA018AEC91E00E94850276
:1005A0006091BB018AEC91E00E9485026091BC01E0
:1005B0008AEC91E00F900F900F900F90DF91CF9108
:1005C000FF90EF90DF90CF90BF90AF909F908F9073
:1005D0000C9485028090BD019090BE01A090BF0157
:1005E000B090C00180911E0190911F019401281BC1
:1005F000390B622F3C832B83C090B901D090BA0194
:10060000E090BB01F090BC0180911A0190911B0118
:100610009601281B390B3A8329838AEC91E00E94CA
:1006200085026C818AEC91E00E94850269818AECE6
:1006300091E00E9485026A818AEC91E00E94850225
:1006400080921E0190921F01A0922001B092210180
:10065000C0921A01D0921B01E0921C01F0921D0180
:100660000F900F900F900F90DF91CF91FF90EF9030
:10067000DF90CF90BF90AF909F908F900895EF92B2
:10068000FF920F931F93CF93DF9300D000D0CDB78D
:10069000DEB78C018AEC91E00E9455020130110511
:1006A00019F48093220151C081114FC0053011050A
:1006B00009F04BC08E010F5F1F4F84E0F82EF00E43
:1006C0008AEC91E00E945502F80181938F01FE129D
:1006D000F7CF0B811C81E980FA801E141F042CF0D7
:1006E000662777276E197F0902C060E070E080916D
:1006F000EE010E941401B701F7FE02C060E070E055
:100700008091EF010E941401B80117FF02C060E060
:1007100070E08091F0010E941401101611062CF077
:1007200066277727601B710B02C060E070E0809144
:10073000F1010F900F900F900F90DF91CF911F91CB
:100740000F91FF90EF900C9414010F900F900F9069
:100750000F90DF91CF911F910F91FF90EF9008952F
:10076000DC01ED91FD918081ED91FD919081ED9104
:10077000FD916C9163708E2309F064609F2309F0F2
:100780006860EDECF3E0E60FF11D659565956D93FE
:100790006D917D918D919D91099423C01AC012C0D5
:1007A00016C010C01EC009C014C013C006C019C0B6
:1007B00009C00DC007C00DC014C062507040804019
:1007C00090400BC0615070408040904006C06E5F0A
:1007D00001C06F5F7F4F8F4F9F4F9E938E937E938D
:1007E0006E93089580911801909119010C94B003B3
:1007F00080911601909117010C94B0030E9482071A
:100800008230A1F0833029F57093190160931801AB
:1008100082EF93E09093030180930201809169003D
:10082000837F846080936900E99A11C070931701F7
:100830006093160188EF93E090930101809300018B
:10084000809169008C7F816080936900E89A81E0E3
:10085000089580E008950F931F93CF93DF93EC01E9
:10086000062F142F62E0802F0E94D80062E0812FB3
:100870000E94D800802F90E0FC01EA57FF4FE491DE
:10088000F0E0EE0FFF1FE859FF4FA591B491B98337
:10089000A883FC01E656FF4F84918C83212F30E022
:1008A000F901EA57FF4F9491E92FF0E0EE0FFF1F97
:1008B000E859FF4F459154915B834A83F901E6560D
:1008C000FF4FE491ED831F82188619861A86EBE3A9
:1008D000FFE13197F1F7EC91E82381E009F480E042
:1008E000FA0120819D81922309F082608E83BE01EE
:1008F000802F0E9400048B87BE01812F0E9400047C
:100900002B8590E0820F911D8B87DF91CF911F91F6
:100910000F9108951F920F920FB60F9211242F93EB
:100920003F938F939F93AF93BF938091C201909118
:10093000C301A091C401B091C5013091C10123E070
:10094000230F2D3720F40196A11DB11D05C026E807
:10095000230F0296A11DB11D2093C1018093C201F6
:100960009093C301A093C401B093C5018091C601C7
:100970009091C701A091C801B091C9010196A11D34
:10098000B11D8093C6019093C701A093C801B09395
:10099000C901BF91AF919F918F913F912F910F907E
:1009A0000FBE0F901F9018951F920F920FB60F92C7
:1009B00011242F933F934F935F936F937F938F9364
:1009C0009F93AF93BF93EF93FF93E0910201F09158
:1009D00003010995FF91EF91BF91AF919F918F9185
:1009E0007F916F915F914F913F912F910F900FBE2B
:1009F0000F901F9018951F920F920FB60F9211240F
:100A00002F933F934F935F936F937F938F939F9316
:100A1000AF93BF93EF93FF93E0910001F091010139
:100A20000995FF91EF91BF91AF919F918F917F9128
:100A30006F915F914F913F912F910F900FBE0F904B
:100A40001F9018951F920F920FB60F9211242F939B
:100A50003F934F935F936F937F938F939F93AF9346
:100A6000BF93EF93FF938091B900887F803609F49C
:100A70009CC068F5883209F45BC090F4803109F4B9
:100A800054C038F4882309F4F6C0883009F44DC006
:100A9000F6C0883109F44CC0803209F45DC0EFC063
:100AA000803409F468C048F4803309F455C08833B1
:100AB00009F0E5C080938601D8C0803509F44FC0A5
:100AC000883509F45DC0883409F0D9C0D6C08839AA
:100AD00009F4C7C0A8F4883709F467C038F4883629
:100AE00009F463C0803709F460C0C9C0883809F4CC
:100AF000B8C0803909F45FC0803809F0C0C05BC05D
:100B0000803B09F486C038F4803A09F466C0883A1C
:100B100009F47FC0B4C0803C09F4A7C0883C09F444
:100B2000A4C0883B09F48AC0AAC08091A90110C062
:100B30009091A8018091A701981770F5E091A80104
:100B400081E08E0F8093A801F0E0E957FE4F80818D
:100B50008093BB0085EC86C0809386018EC0E091B7
:100B6000A80181E08E0F8093A8018091BB00F0E086
:100B7000E957FE4F80839091A8018091A7016EC034
:100B8000E091A80181E08E0F8093A8018091BB00C5
:100B9000F0E0E957FE4F80838091AB0181116DC079
:100BA00081E08093AA0184EA61C083E08093AC0174
:100BB00010928501CFCF80918501803208F051C01D
:100BC000E091850181E08E0F809385018091BB00CB
:100BD000F0E0EB59FE4F8083BDCF85EC8093BC00E5
:100BE0001092AC0180918501803230F4E091850152
:100BF000F0E0EB59FE4F10826091850170E0E091CA
:100C0000B101F091B20185E691E00995109285015C
:100C100036C084E08093AC011092640110926301AD
:100C2000E091B301F091B4010995809163018111C4
:100C300005C081E08093630110924301E09164015B
:100C400081E08E0F80936401F0E0ED5BFE4F8081C8
:100C50008093BB009091640180916301981708F420
:100C600079CF85E88093BC000AC085EC8093BC00F6
:100C70001092AC0104C0109286010E941302FF91F1
:100C8000EF91BF91AF919F918F917F916F915F9104
:100C90004F913F912F910F900FBE0F901F9018957D
:100CA000CF93DF93EAECF1E01382128288EE93E0B7
:100CB000A0E0B0E084839583A683B78388E091E0C9
:100CC00091838083CEEED1E086E0888389E08983BA
:100CD00083E08A8385E08B8361E086E00E94D80010
:100CE00061E089810E94D80061E08A810E94D80079
:100CF00061E08B810E94D800CE010E94FA0141E19F
:100D000060E182EE91E00E942B044FE06EE086ED00
:100D100091E0DF91CF910C942B04789484B582609C
:100D200084BD84B5816084BD85B5826085BD85B58F
:100D3000816085BD80916E00816080936E0010920D
:100D40008100809181008260809381008091810088
:100D50008160809381008091800081608093800019
:100D60008091B10084608093B1008091B000816077
:100D70008093B00080917A00846080937A008091A3
:100D80007A00826080937A0080917A0081608093FB
:100D90007A0080917A00806880937A001092C10076
:100DA0000E9473014B015C0188ECC82ED12CE12C10
:100DB000F12C0E947301DC01CB0188199909AA0961
:100DC000BB09883E9340A105B10558F021E0C21A45
:100DD000D108E108F10888EE880E83E0981EA11C76
:100DE000B11CC114D104E104F10419F78EEE91E0B5
:100DF0000E94FA018CEA8093BA0088E991E090930E
:100E0000B4018093B30184EA91E09093B20180939E
:100E1000B1011092B0011092AF011092AE01109288
:100E2000AD011092AC0181E08093AB011092AA0158
:100E300061E082E10E948C0061E083E10E948C000D
:100E40008091B9008E7F8093B9008091B9008D7F29
:100E50008093B90088E48093B80085E48093BC0057
:100E60008AE992E09093B6018093B5018FE393E015
:100E70009093B8018093B701C0E0D0E08091ED017C
:100E8000823030F4F89482EE91E00E94B00301C009
:100E9000F8948091E9019091EA01A091EB01B09161
:100EA000EC0178948093BD019093BE01A093BF01A3
:100EB000B093C0018091E101823030F4F89486ED66
:100EC00091E00E94B00301C0F8948091DD019091FF
:100ED000DE01A091DF01B091E00178948093B90127
:100EE0009093BA01A093BB01B093BC01209709F481
:100EF000C5CF0E940000C2CFEE0FFF1F0590F491F6
:100F0000E02D099481E090E0F8940C948707F89420
:020F1000FFCF11
:100F1200CE01CE0100000000850271029702450257
:060F2200690255024602BF
:00000001FF
